{
  "contractName": "SimpleStore",
  "abi": [
    {
      "constant": true,
      "inputs": [
        {
          "name": "",
          "type": "uint256"
        }
      ],
      "name": "cntrcts",
      "outputs": [
        {
          "name": "",
          "type": "address"
        }
      ],
      "payable": false,
      "stateMutability": "view",
      "type": "function"
    },
    {
      "anonymous": false,
      "inputs": [
        {
          "indexed": true,
          "name": "_value",
          "type": "uint256"
        },
        {
          "indexed": false,
          "name": "_sender",
          "type": "address"
        }
      ],
      "name": "NewValueSet",
      "type": "event"
    },
    {
      "anonymous": false,
      "inputs": [
        {
          "indexed": true,
          "name": "_value",
          "type": "uint256"
        },
        {
          "indexed": false,
          "name": "_sender",
          "type": "address"
        }
      ],
      "name": "NewValueSetAgain",
      "type": "event"
    },
    {
      "constant": false,
      "inputs": [
        {
          "name": "_value",
          "type": "uint256"
        }
      ],
      "name": "set",
      "outputs": [],
      "payable": false,
      "stateMutability": "nonpayable",
      "type": "function"
    },
    {
      "constant": false,
      "inputs": [
        {
          "name": "_value",
          "type": "uint256"
        }
      ],
      "name": "setAgain",
      "outputs": [],
      "payable": false,
      "stateMutability": "nonpayable",
      "type": "function"
    },
    {
      "constant": true,
      "inputs": [],
      "name": "get",
      "outputs": [
        {
          "name": "",
          "type": "uint256"
        },
        {
          "name": "",
          "type": "address"
        }
      ],
      "payable": false,
      "stateMutability": "view",
      "type": "function"
    },
    {
      "constant": false,
      "inputs": [
        {
          "name": "val",
          "type": "uint256"
        }
      ],
      "name": "doLotOfStuff",
      "outputs": [],
      "payable": false,
      "stateMutability": "nonpayable",
      "type": "function"
    }
  ],
  "bytecode": "0x608060405234801561001057600080fd5b506104a2806100206000396000f3fe60806040526004361061006d576000357c0100000000000000000000000000000000000000000000000000000000900463ffffffff16806360fe47b1146100725780636d1550c7146100ad5780636d4ce63c146100e8578063cf71892114610146578063f28b1cbd14610181575b600080fd5b34801561007e57600080fd5b506100ab6004803603602081101561009557600080fd5b81019080803590602001909291905050506101fc565b005b3480156100b957600080fd5b506100e6600480360360208110156100d057600080fd5b810190808035906020019092919050505061026c565b005b3480156100f457600080fd5b506100fd610315565b604051808381526020018273ffffffffffffffffffffffffffffffffffffffff1673ffffffffffffffffffffffffffffffffffffffff1681526020019250505060405180910390f35b34801561015257600080fd5b5061017f6004803603602081101561016957600080fd5b8101908080359060200190929190505050610327565b005b34801561018d57600080fd5b506101ba600480360360208110156101a457600080fd5b8101908080359060200190929190505050610397565b604051808273ffffffffffffffffffffffffffffffffffffffff1673ffffffffffffffffffffffffffffffffffffffff16815260200191505060405180910390f35b806000819055506000547f7e0b7a35f017ec94e71d7012fe8fa8011f1dab6090674f92de08f8092ab30dda33604051808273ffffffffffffffffffffffffffffffffffffffff1673ffffffffffffffffffffffffffffffffffffffff16815260200191505060405180910390a250565b60008090505b818110156103115760016102846103d5565b604051809103906000f0801580156102a0573d6000803e3d6000fd5b5090806001815401808255809150509060018203906000526020600020016000909192909190916101000a81548173ffffffffffffffffffffffffffffffffffffffff021916908373ffffffffffffffffffffffffffffffffffffffff160217905550508080600101915050610272565b5050565b60008060005433809050915091509091565b806000819055506000547fbd0b1e25f4b9c4b15621999967b6f720a9d31b208d1b70ec690fb4f46d445c8233604051808273ffffffffffffffffffffffffffffffffffffffff1673ffffffffffffffffffffffffffffffffffffffff16815260200191505060405180910390a250565b6001818154811015156103a657fe5b906000526020600020016000915054906101000a900473ffffffffffffffffffffffffffffffffffffffff1681565b6040516092806103e58339019056fe6080604052348015600f57600080fd5b50336000806101000a81548173ffffffffffffffffffffffffffffffffffffffff021916908373ffffffffffffffffffffffffffffffffffffffff160217905550603580605d6000396000f3fe6080604052600080fdfea165627a7a72305820ea12d74493cac77741f83fbabc66a2dfac81ae3d495115cf17bba9663ac51c0d0029a165627a7a72305820c47bc99d3e211fd6d33d62dcf49e5e9e67fb5774f1a770da67822336a6d7dc210029",
  "source": "pragma solidity ^0.5.0;\nimport \"./Test.sol\";\n\ncontract SimpleStore {\n  uint256 value;\n\n  event NewValueSet(uint256 indexed _value, address _sender);\n  event NewValueSetAgain(uint256 indexed _value, address _sender);\n\n  Test[] public cntrcts ;\n\n  function set(uint256 _value) public {\n    value = _value;\n    emit NewValueSet(value, msg.sender);\n  }\n\n  function setAgain(uint256 _value) public {\n    value = _value;\n    emit NewValueSetAgain(value, msg.sender);\n  }\n\n  function get() public view returns (uint256, address) {\n    return (value, msg.sender);\n  }\n\n  function doLotOfStuff(uint256 val) public{\n      for(uint256 i =0;i<val;i++){\n          cntrcts.push(new Test());\n      }\n  }\n}\n",
  "sourcePath": "/workspace/TestLoom/contracts/SimpleStore.sol",
  "compiler": {
    "name": "solc",
    "version": "0.5.0+commit.1d4f565a.Emscripten.clang"
  },
  "schemaVersion": "3.0.16",
  "updatedAt": "2019-09-30T11:21:29.474Z",
  "devdoc": {
    "methods": {}
  },
  "userdoc": {
    "methods": {}
  }
}